{
  "contractName": "Counter",
  "abi": [
    {
      "inputs": [],
      "stateMutability": "nonpayable",
      "type": "constructor"
    },
    {
      "inputs": [],
      "name": "current",
      "outputs": [
        {
          "internalType": "int256",
          "name": "",
          "type": "int256"
        }
      ],
      "stateMutability": "view",
      "type": "function",
      "constant": true
    },
    {
      "inputs": [],
      "name": "increment",
      "outputs": [],
      "stateMutability": "nonpayable",
      "type": "function"
    },
    {
      "inputs": [],
      "name": "decrement",
      "outputs": [],
      "stateMutability": "nonpayable",
      "type": "function"
    }
  ],
  "bytecode": "0x608060405234801561001057600080fd5b50600080819055506101d7806100276000396000f3fe608060405234801561001057600080fd5b50600436106100415760003560e01c80632baeceb7146100465780639fa6a6e314610050578063d09de08a1461006e575b600080fd5b61004e610078565b005b610058610093565b60405161006591906100d0565b60405180910390f35b61007661009c565b005b600160008082825461008a919061011a565b92505081905550565b60008054905090565b60016000808282546100ae919061015d565b92505081905550565b6000819050919050565b6100ca816100b7565b82525050565b60006020820190506100e560008301846100c1565b92915050565b7f4e487b7100000000000000000000000000000000000000000000000000000000600052601160045260246000fd5b6000610125826100b7565b9150610130836100b7565b9250828203905081811260008412168282136000851215161715610157576101566100eb565b5b92915050565b6000610168826100b7565b9150610173836100b7565b92508282019050828112156000831216838212600084121516171561019b5761019a6100eb565b5b9291505056fea26469706673582212202dc53b9dd052d37b433134dce0c2478b75d61fc41a4a480d440b68bd42897a2b64736f6c63430008120033",
  "immutableReferences": {},
  "source": "// SPDX-License-Identifier: MIT\r\n\r\npragma solidity ^0.8.18;\r\n\r\ncontract Counter {\r\n  int256 private _count;\r\n\r\n  constructor() {\r\n    _count = 0;\r\n  }\r\n\r\n  function current() public view returns (int256) {\r\n    return _count;\r\n  }\r\n\r\n  function increment() public {\r\n    _count += 1;\r\n  }\r\n\r\n  function decrement() public {\r\n    _count -= 1;\r\n  }\r\n}\r\n",
  "sourcePath": "C:\\Users\\KGA_12\\Desktop\\Block\\chain\\block032\\test\\contracts\\Counter.sol",
  "compiler": {
    "name": "solc",
    "version": "0.8.18+commit.87f61d96.Emscripten.clang"
  },
  "schemaVersion": "3.4.12",
  "updatedAt": "2023-03-02T01:48:35.852Z",
  "networkType": "ethereum",
  "devdoc": {
    "kind": "dev",
    "methods": {},
    "version": 1
  },
  "userdoc": {
    "kind": "user",
    "methods": {},
    "version": 1
  }
}