{
  "contractName": "Counter",
  "abi": [
    {
      "inputs": [],
      "stateMutability": "nonpayable",
      "type": "constructor"
    },
    {
      "anonymous": false,
      "inputs": [
        {
          "indexed": false,
          "internalType": "uint256",
          "name": "count",
          "type": "uint256"
        }
      ],
      "name": "Count",
      "type": "event"
    },
    {
      "inputs": [],
      "name": "current",
      "outputs": [
        {
          "internalType": "uint256",
          "name": "",
          "type": "uint256"
        }
      ],
      "stateMutability": "view",
      "type": "function",
      "constant": true
    },
    {
      "inputs": [],
      "name": "increment",
      "outputs": [],
      "stateMutability": "nonpayable",
      "type": "function"
    },
    {
      "inputs": [],
      "name": "decrement",
      "outputs": [],
      "stateMutability": "nonpayable",
      "type": "function"
    }
  ],
  "bytecode": "0x608060405234801561001057600080fd5b506000808190555061022a806100276000396000f3fe608060405234801561001057600080fd5b50600436106100415760003560e01c80632baeceb7146100465780639fa6a6e314610050578063d09de08a1461006e575b600080fd5b61004e610078565b005b6100586100cc565b6040516100659190610142565b60405180910390f35b6100766100d5565b005b600160008082825461008a919061018c565b925050819055507face32e4392fafee7f8245a5ae6a32722dc74442d018c52e460835648cbeeeba16000546040516100c29190610142565b60405180910390a1565b60008054905090565b60016000808282546100e791906101c0565b925050819055507face32e4392fafee7f8245a5ae6a32722dc74442d018c52e460835648cbeeeba160005460405161011f9190610142565b60405180910390a1565b6000819050919050565b61013c81610129565b82525050565b60006020820190506101576000830184610133565b92915050565b7f4e487b7100000000000000000000000000000000000000000000000000000000600052601160045260246000fd5b600061019782610129565b91506101a283610129565b92508282039050818111156101ba576101b961015d565b5b92915050565b60006101cb82610129565b91506101d683610129565b92508282019050808211156101ee576101ed61015d565b5b9291505056fea2646970667358221220a4cec8409135094969796b70b231d6e79e4845e214ddefe68adcef1464c559b164736f6c63430008130033",
  "immutableReferences": {},
  "source": "// SPDX-License-Identifier: MIT\r\n\r\npragma solidity ^0.8.18;\r\n\r\ncontract Counter {\r\n  uint256 private count;\r\n\r\n  event Count(uint256 count); // 프론트의 web3.eth.subscribe(\"logs\", { address: CA })를 위해 사용\r\n\r\n  constructor() {\r\n    count = 0;\r\n  }\r\n\r\n  function current() public view returns (uint256) {\r\n    return count;\r\n  }\r\n\r\n  function increment() public {\r\n    count += 1;\r\n    emit Count(count);\r\n  }\r\n\r\n  function decrement() public {\r\n    count -= 1;\r\n    emit Count(count);\r\n  }\r\n}\r\n",
  "sourcePath": "C:\\Users\\KGA_12\\Desktop\\Block\\Chain\\block033\\back\\contracts\\Counter.sol",
  "compiler": {
    "name": "solc",
    "version": "0.8.19+commit.7dd6d404.Emscripten.clang"
  },
  "schemaVersion": "3.4.13",
  "updatedAt": "2023-03-03T03:15:37.778Z",
  "networkType": "ethereum",
  "devdoc": {
    "kind": "dev",
    "methods": {},
    "version": 1
  },
  "userdoc": {
    "kind": "user",
    "methods": {},
    "version": 1
  }
}