{
  "contractName": "ERC20",
  "abi": [
    {
      "anonymous": false,
      "inputs": [
        {
          "indexed": true,
          "internalType": "address",
          "name": "owner",
          "type": "address"
        },
        {
          "indexed": true,
          "internalType": "address",
          "name": "spender",
          "type": "address"
        },
        {
          "indexed": false,
          "internalType": "uint256",
          "name": "amount",
          "type": "uint256"
        }
      ],
      "name": "Approval",
      "type": "event"
    },
    {
      "anonymous": false,
      "inputs": [
        {
          "indexed": true,
          "internalType": "address",
          "name": "from",
          "type": "address"
        },
        {
          "indexed": true,
          "internalType": "address",
          "name": "to",
          "type": "address"
        },
        {
          "indexed": false,
          "internalType": "uint256",
          "name": "amount",
          "type": "uint256"
        }
      ],
      "name": "Transfer",
      "type": "event"
    },
    {
      "inputs": [
        {
          "internalType": "address",
          "name": "",
          "type": "address"
        },
        {
          "internalType": "address",
          "name": "",
          "type": "address"
        }
      ],
      "name": "allowance",
      "outputs": [
        {
          "internalType": "uint256",
          "name": "",
          "type": "uint256"
        }
      ],
      "stateMutability": "view",
      "type": "function"
    },
    {
      "inputs": [
        {
          "internalType": "address",
          "name": "",
          "type": "address"
        }
      ],
      "name": "balances",
      "outputs": [
        {
          "internalType": "uint256",
          "name": "",
          "type": "uint256"
        }
      ],
      "stateMutability": "view",
      "type": "function"
    },
    {
      "inputs": [],
      "name": "decimals",
      "outputs": [
        {
          "internalType": "uint8",
          "name": "",
          "type": "uint8"
        }
      ],
      "stateMutability": "view",
      "type": "function"
    },
    {
      "inputs": [],
      "name": "name",
      "outputs": [
        {
          "internalType": "string",
          "name": "",
          "type": "string"
        }
      ],
      "stateMutability": "view",
      "type": "function"
    },
    {
      "inputs": [],
      "name": "symbol",
      "outputs": [
        {
          "internalType": "string",
          "name": "",
          "type": "string"
        }
      ],
      "stateMutability": "view",
      "type": "function"
    },
    {
      "inputs": [],
      "name": "totalSupply",
      "outputs": [
        {
          "internalType": "uint256",
          "name": "",
          "type": "uint256"
        }
      ],
      "stateMutability": "view",
      "type": "function"
    },
    {
      "inputs": [
        {
          "internalType": "address",
          "name": "account",
          "type": "address"
        }
      ],
      "name": "balanceOf",
      "outputs": [
        {
          "internalType": "uint256",
          "name": "",
          "type": "uint256"
        }
      ],
      "stateMutability": "view",
      "type": "function"
    },
    {
      "inputs": [
        {
          "internalType": "address",
          "name": "recipient",
          "type": "address"
        },
        {
          "internalType": "uint256",
          "name": "amount",
          "type": "uint256"
        }
      ],
      "name": "transfer",
      "outputs": [
        {
          "internalType": "bool",
          "name": "",
          "type": "bool"
        }
      ],
      "stateMutability": "nonpayable",
      "type": "function"
    },
    {
      "inputs": [
        {
          "internalType": "address",
          "name": "spender",
          "type": "address"
        },
        {
          "internalType": "uint256",
          "name": "amount",
          "type": "uint256"
        }
      ],
      "name": "approve",
      "outputs": [
        {
          "internalType": "bool",
          "name": "",
          "type": "bool"
        }
      ],
      "stateMutability": "nonpayable",
      "type": "function"
    },
    {
      "inputs": [
        {
          "internalType": "address",
          "name": "sender",
          "type": "address"
        },
        {
          "internalType": "address",
          "name": "recipient",
          "type": "address"
        },
        {
          "internalType": "uint256",
          "name": "amount",
          "type": "uint256"
        }
      ],
      "name": "transferFrom",
      "outputs": [
        {
          "internalType": "bool",
          "name": "",
          "type": "bool"
        }
      ],
      "stateMutability": "nonpayable",
      "type": "function"
    }
  ],
  "bytecode": "0x60806040526012600260006101000a81548160ff021916908360ff16021790555034801561002c57600080fd5b50610bbb8061003c6000396000f3fe608060405234801561001057600080fd5b506004361061009e5760003560e01c8063313ce56711610066578063313ce5671461016f57806370a082311461018d57806395d89b41146101bd578063a9059cbb146101db578063dd62ed3e1461020b5761009e565b806306fdde03146100a3578063095ea7b3146100c157806318160ddd146100f157806323b872dd1461010f57806327e235e31461013f575b600080fd5b6100ab61023b565b6040516100b8919061083c565b60405180910390f35b6100db60048036038101906100d691906108f7565b6102c9565b6040516100e89190610952565b60405180910390f35b6100f96103bb565b604051610106919061097c565b60405180910390f35b61012960048036038101906101249190610997565b6103c1565b6040516101369190610952565b60405180910390f35b610159600480360381019061015491906109ea565b610568565b604051610166919061097c565b60405180910390f35b610177610580565b6040516101849190610a33565b60405180910390f35b6101a760048036038101906101a291906109ea565b610593565b6040516101b4919061097c565b60405180910390f35b6101c56105dc565b6040516101d2919061083c565b60405180910390f35b6101f560048036038101906101f091906108f7565b61066a565b6040516102029190610952565b60405180910390f35b61022560048036038101906102209190610a4e565b610787565b604051610232919061097c565b60405180910390f35b6000805461024890610abd565b80601f016020809104026020016040519081016040528092919081815260200182805461027490610abd565b80156102c15780601f10610296576101008083540402835291602001916102c1565b820191906000526020600020905b8154815290600101906020018083116102a457829003601f168201915b505050505081565b600081600560003373ffffffffffffffffffffffffffffffffffffffff1673ffffffffffffffffffffffffffffffffffffffff16815260200190815260200160002060008573ffffffffffffffffffffffffffffffffffffffff1673ffffffffffffffffffffffffffffffffffffffff168152602001908152602001600020819055508273ffffffffffffffffffffffffffffffffffffffff163373ffffffffffffffffffffffffffffffffffffffff167f8c5be1e5ebec7d5bd14f71427d1e84f3dd0314c0f7b2291e5b200ac8c7c3b925846040516103a9919061097c565b60405180910390a36001905092915050565b60035481565b600081600560008673ffffffffffffffffffffffffffffffffffffffff1673ffffffffffffffffffffffffffffffffffffffff16815260200190815260200160002060003373ffffffffffffffffffffffffffffffffffffffff1673ffffffffffffffffffffffffffffffffffffffff16815260200190815260200160002054101561044c57600080fd5b81600460003373ffffffffffffffffffffffffffffffffffffffff1673ffffffffffffffffffffffffffffffffffffffff168152602001908152602001600020600082825461049b9190610b1d565b9250508190555081600460008573ffffffffffffffffffffffffffffffffffffffff1673ffffffffffffffffffffffffffffffffffffffff16815260200190815260200160002060008282546104f19190610b51565b925050819055508273ffffffffffffffffffffffffffffffffffffffff168473ffffffffffffffffffffffffffffffffffffffff167fddf252ad1be2c89b69c2b068fc378daa952ba7f163c4a11628f55a4df523b3ef84604051610555919061097c565b60405180910390a3600190509392505050565b60046020528060005260406000206000915090505481565b600260009054906101000a900460ff1681565b6000600460008373ffffffffffffffffffffffffffffffffffffffff1673ffffffffffffffffffffffffffffffffffffffff168152602001908152602001600020549050919050565b600180546105e990610abd565b80601f016020809104026020016040519081016040528092919081815260200182805461061590610abd565b80156106625780601f1061063757610100808354040283529160200191610662565b820191906000526020600020905b81548152906001019060200180831161064557829003601f168201915b505050505081565b600081600460003373ffffffffffffffffffffffffffffffffffffffff1673ffffffffffffffffffffffffffffffffffffffff16815260200190815260200160002060008282546106bb9190610b1d565b9250508190555081600460008573ffffffffffffffffffffffffffffffffffffffff1673ffffffffffffffffffffffffffffffffffffffff16815260200190815260200160002060008282546107119190610b51565b925050819055508273ffffffffffffffffffffffffffffffffffffffff163373ffffffffffffffffffffffffffffffffffffffff167fddf252ad1be2c89b69c2b068fc378daa952ba7f163c4a11628f55a4df523b3ef84604051610775919061097c565b60405180910390a36001905092915050565b6005602052816000526040600020602052806000526040600020600091509150505481565b600081519050919050565b600082825260208201905092915050565b60005b838110156107e65780820151818401526020810190506107cb565b60008484015250505050565b6000601f19601f8301169050919050565b600061080e826107ac565b61081881856107b7565b93506108288185602086016107c8565b610831816107f2565b840191505092915050565b600060208201905081810360008301526108568184610803565b905092915050565b600080fd5b600073ffffffffffffffffffffffffffffffffffffffff82169050919050565b600061088e82610863565b9050919050565b61089e81610883565b81146108a957600080fd5b50565b6000813590506108bb81610895565b92915050565b6000819050919050565b6108d4816108c1565b81146108df57600080fd5b50565b6000813590506108f1816108cb565b92915050565b6000806040838503121561090e5761090d61085e565b5b600061091c858286016108ac565b925050602061092d858286016108e2565b9150509250929050565b60008115159050919050565b61094c81610937565b82525050565b60006020820190506109676000830184610943565b92915050565b610976816108c1565b82525050565b6000602082019050610991600083018461096d565b92915050565b6000806000606084860312156109b0576109af61085e565b5b60006109be868287016108ac565b93505060206109cf868287016108ac565b92505060406109e0868287016108e2565b9150509250925092565b600060208284031215610a00576109ff61085e565b5b6000610a0e848285016108ac565b91505092915050565b600060ff82169050919050565b610a2d81610a17565b82525050565b6000602082019050610a486000830184610a24565b92915050565b60008060408385031215610a6557610a6461085e565b5b6000610a73858286016108ac565b9250506020610a84858286016108ac565b9150509250929050565b7f4e487b7100000000000000000000000000000000000000000000000000000000600052602260045260246000fd5b60006002820490506001821680610ad557607f821691505b602082108103610ae857610ae7610a8e565b5b50919050565b7f4e487b7100000000000000000000000000000000000000000000000000000000600052601160045260246000fd5b6000610b28826108c1565b9150610b33836108c1565b9250828203905081811115610b4b57610b4a610aee565b5b92915050565b6000610b5c826108c1565b9150610b67836108c1565b9250828201905080821115610b7f57610b7e610aee565b5b9291505056fea2646970667358221220d8e43ef3cd1992fa864c033a58f97c5575d11d86dcf6e00b150433e70551f16364736f6c63430008130033",
  "immutableReferences": {},
  "source": "// SPDX-License-Identifier: MIT\r\npragma solidity ^0.8.19;\r\n\r\nimport \"./IERC20.sol\";\r\n\r\ncontract ERC20 is IERC20 {\r\n  string public name;\r\n  string public symbol;\r\n  uint8 public decimals = 18;\r\n\r\n  uint public override totalSupply;\r\n  mapping(address => uint) public balances;\r\n  mapping(address => mapping(address => uint)) public override allowance;\r\n\r\n  function balanceOf(address account) external view override returns (uint) {\r\n    return balances[account];\r\n  }\r\n\r\n  function transfer(\r\n    address recipient,\r\n    uint amount\r\n  ) external override returns (bool) {\r\n    balances[msg.sender] -= amount;\r\n    balances[recipient] += amount;\r\n    emit Transfer(msg.sender, recipient, amount);\r\n    return true;\r\n  }\r\n\r\n  function approve(\r\n    address spender,\r\n    uint amount\r\n  ) external override returns (bool) {\r\n    allowance[msg.sender][spender] = amount;\r\n    emit Approval(msg.sender, spender, amount);\r\n    return true;\r\n  }\r\n\r\n  function transferFrom(\r\n    address sender,\r\n    address recipient,\r\n    uint amount\r\n  ) external override returns (bool) {\r\n    require(allowance[sender][msg.sender] >= amount);\r\n    balances[msg.sender] -= amount;\r\n    balances[recipient] += amount;\r\n    emit Transfer(sender, recipient, amount);\r\n    return true;\r\n  }\r\n\r\n  function mint(uint amount) internal {\r\n    balances[msg.sender] += amount;\r\n    totalSupply += amount;\r\n    emit Transfer(address(0), msg.sender, amount);\r\n  }\r\n\r\n  function burn(uint amount) internal {\r\n    balances[msg.sender] -= amount;\r\n    totalSupply -= amount;\r\n    emit Transfer(msg.sender, address(0), amount);\r\n  }\r\n}\r\n",
  "sourcePath": "C:\\Users\\KGA_12\\Desktop\\Block\\chain\\blockEx08\\back\\contracts\\ERC20.sol",
  "compiler": {
    "name": "solc",
    "version": "0.8.19+commit.7dd6d404.Emscripten.clang"
  },
  "schemaVersion": "3.4.13",
  "updatedAt": "2023-03-09T08:15:07.483Z",
  "devdoc": {
    "kind": "dev",
    "methods": {},
    "version": 1
  },
  "userdoc": {
    "kind": "user",
    "methods": {},
    "version": 1
  }
}